:100000006F30B03813000000130000001300000030
:100010001300000013000000130000001300000094
:100020001300000013000000130000001300000084
:08003000130000007300100032
:10003800000000000000000070370000903700004A
:1000480000000000D03A000000000000000000009E
:10005800D23A0000D43A000000000000000000007E
:100068003A2F000000000000D0020000000000004D
:10007800DA3A0000DC3A0000DE3A0000E03A00001C
:10008800E23A0000E43A0000303300005833000040
:1000980080330000A8330000D0330000F03A00009D
:1000A800F23A0000F43A0000F63A0000F83A00008C
:1000B800FA3A0000FC3A0000FE3A0000003B00005B
:1000C800023B0000043B0000063B0000F833000040
:1000D8000A3B00000C3B00000E3B0000103B0000F8
:1000E800123B0000143B0000163B0000183B0000C8
:1000F8001A3B00001C3B00001E3B0000203B000098
:10010800223B000026370000263B0000283B000069
:10011800703400002C3B00002E3B0000303B0000F8
:10012800323B0000343B0000363B0000383B000007
:100138003A3B00003C3B00003E3B0000403B0000D7
:10014800423B0000443B0000463B0000483B0000A7
:100158004A3B00004C3B00004E3B0000503B000077
:10016800523B0000543B0000563B0000583B000047
:100178005A3B00005C3B00005E3B0000603B000017
:10018800623B0000643B0000663B0000683B0000E7
:100198006A3B00006C3B00006E3B0000703B0000B7
:1001A800723B0000743B0000763B0000783B000087
:1001B8007A3B00007C3B00007E3B0000803B000057
:1001C800823B0000843B0000863B0000883B000027
:1001D8000000000000000000000000000000000017
:1001E8000000000000000000000000000000000007
:0801F8000000000000000000FF
:1002000097020120938202E0938202E0739002340D
:1002100003210500224573100530B1A81971232070
:10022000250006C006C216CAF322003093F28200EF
:10023000638402009302000816C412C81ACC1ECEB2
:1002400022D026D22AD42ED632D836DA3ADC3EDE76
:10025000C2C0C6C2CAC4CEC6D2C8D6CADACCDECEE6
:10026000E2D0E6D2EAD4EED6F2D8F6DAFADCFEDE56
:1002700003A1050009A0024573101534924037858B
:1002800000001305058073200530224573200530DA
:100290004242D2426243F243025492542255B25532
:1002A0004256D2566257F257064896482649B649F2
:1002B000464AD64A664BF64B065C965C265DB65DB2
:1002C000465ED65E665FF65F09617300203000000F
:1002D000197116CA9302000816C49302000273A093
:1002E000428006C212C81ACC1ECE22D026D22AD4F0
:1002F0002ED632D836DA3ADC3EDEC2C0C6C2CAC416
:10030000CEC6D2C8D6CADACCDECEE2D0E6D2EAD4A5
:10031000EED6F2D8F6DAFADCFEDE73110134FD23F4
:10032000EF105000EF004061731101341384818A93
:1003300003290400630409022320040073251034F8
:100340002AC01384018A044023A024001384418A14
:10035000044003A104000245731015349240B78293
:1003600000009382028073A00230A24273A0023088
:100370004242D2426243F243025492542255B25551
:100380004256D2566257F257064896482649B64911
:10039000464AD64A664BF64B065C965C265DB65DD1
:1003A000465ED65E665FF65F09617300203000002E
:1003B000397101436EC619A0397141536AC866CAC2
:1003C00062CC5ECE19A0397101535AD056D252D4A4
:1003D0004ED64AD826DA22DC06DE3301614082821C
:1003E00041114AC026C222C406C68282B24D4101D2
:1003F000024D924C224CB24B4101024B924A224A8E
:10040000B2494101024992442244B24041018280F2
:100410003D432A876373C3029377F700BDEFADE5D1
:10042000937606FF3D8ABA960CC34CC30CC74CC7E3
:100430004107E36BD7FE11E28280B306C3408A0610
:100440009702000096966780A6002307B700A306D0
:10045000B7002306B700A305B7002305B700A30420
:10046000B7002304B700A303B7002303B700A30218
:10047000B7002302B700A301B7002301B700A30010
:10048000B7002300B700828093F5F50F939685009F
:10049000D58D93960501D58D61B793962700970268
:1004A000000096968682E78086FA9680C1171D8F97
:1004B0003E96E374C3F8A5B703A581818280EFF26D
:1004C0003FF2938781819843050798C3EF10E02D91
:1004D0003C45FD173CC589E77C413CC5EF10A03188
:1004E000EF10C05705B70145828001458280014564
:1004F000828001458280EFF2BFEE2164A164130483
:10050000C4BA938484BB63639400EDBD1C401104A2
:100510008297D5BFEFF2DFEC2164A164130484BBA2
:10052000938404BC63639400F1BD1C401104829762
:10053000D5BFEFF2FFEAF93FEF30E03DE1B5EFF272
:100540003FEAB705000037650000D147154793061D
:1005500000200146938525531305452DEF104025B6
:10056000EF10E03745B5EFF2BFE7EF10805CEF200A
:100570007015EF00B02BEF10C055EF003077C1378A
:10058000EF10C055012CEF0050790145A5BDEFF2E9
:100590003FE5D13F0145BDB5EFF2FFE2AA89EF107B
:1005A000C02019C1EF1020092545EF00F06044413B
:1005B0001304450063968400EF10201F014911A821
:1005C000138944FF2146CE854A851D2D01E9EF1090
:1005D000C01D19C1EF1080074A8505B58440D9BFF9
:1005E00009E57D5582807D5531BDEFF27FDF2A849C
:1005F0002E853289AE844D377DF522852686A54528
:10060000EF00305E0145231C2401230E0400231D4E
:100610000400D9BFEFF2DFDC1E2D41112A84C18B0B
:100620009DE71C558DC32EC68297AA84B24501CD85
:100630002A8637650000A2851305C52DEF009018A6
:1006400026854101C1B31E2C93E707011EAC1E2C69
:10065000A18B89C73E2CE554A18BFDF35C5489CF57
:1006600022858297AA8405E13E2C93E787003EAC61
:100670005C2C85075CACE9B785679387F7F0FD8D47
:100680002EAC8144D5B7E957E31CF5FAF1BF5C2DD8
:1006900085CBEFF2FFD4FD1793F7F70F5CAD2A84FB
:1006A000014789EF1C5989E70147231D040039A040
:1006B00082972A8775D9E957E309F5FE3A8599B3F8
:1006C0007D573A858280EFF2BFD1582D09E77D55DD
:1006D0002129014521A05C5999C3829725B3695509
:1006E000C5BFEFF2FFCF582D09E77D55F52E014527
:1006F00021A01C5D99C3829731B36955C5BF0CD148
:1007000001458280EFF23FCC93894187854A83A7D8
:10071000418763863705EF10C04183A741872A8A46
:10072000638D370303A441875C4018401309C4FE5E
:100730005CC398C340C000C0EF00F06F7C5099C309
:100740004A8582974A85EF00F059631B55014A8517
:10075000EF00F04DEF00906F5285EF10403E71B901
:10076000EF00D06E5285EF10803D4848EF00303AE0
:100770004A85EF00105461BFEFF29FC61384419485
:10078000130904011C4091C382971104E31C24FF48
:10079000953FEDB7EFF2DFC437060000B765000004
:1007A000930800023D489307002013874195814636
:1007B00013068677938545311385418CEF00D07BF6
:1007C0001385418CEF10A01135B9EFF27FC14111B3
:1007D0002A842E8532C62EC4EF1000073246A24569
:1007E00019C68547630DF6000145410121B95840FE
:1007F000938745011CC398CD5CC0C0C9F5B71C40A8
:100800006388870083C6550303C7170263FAE600AF
:10081000D4431387450198C294CDD8C3DCC9E9B746
:100820009C43F9BFEFF2DFBB4111B2842E868945AC
:100830002A8436C6EF00F03AB246930744011CCC36
:100840005CC846AC14B4014541016DBEEFF2BFB7C0
:1008500083A7018641112EC62A8491C38297EF1087
:10086000402D5E2CAA8989CFFD175EACEF10202D9C
:1008700083A7C185014591CB22858297014531A08F
:10088000B24791E7EF10A02B79554101BDB6EF00BB
:10089000D071232805021034AA85AA8413054401C7
:1008A0002D37B247635CF0001389C40470008145A2
:1008B0004A85EF1020174A85EF10C00B4E85EF10C8
:1008C0000028EF005048885845D5C1B7EFF25FB116
:1008D00083A781852A8491C38297EF108025AA84FB
:1008E000484893074401630EF5003115EF00707A14
:1008F00005442685EF10A02419C0EF00D04401451F
:1009000011B65E2C85075EAC0144E5B7EFF25FAD32
:100910004111EF100022138741821C23850793F7B2
:10092000F70F1CA383A7C18181C72AC682973245CE
:10093000EF10E0204101F9B4EFF29FAA4111EF104E
:10094000401F138741821C23FD1793F7F70F1CA349
:1009500083A7018281C72AC682973245EF10201EE5
:1009600041014DB403C5418282809378080441114E
:10097000639E080099689388084C93730801638B01
:1009800003001378E8FF930E000219A89968938872
:10099000C841E5B713731800930E0003E30503FE87
:1009A00013732800630E0306635806023306C04023
:1009B0009302D0020A8E814F294F6395E607337365
:1009C000D6023356D602469303430300850F050E25
:1009D000A30F6EFE7DF20DA0137348009302B002C8
:1009E0006317030093728800B3325000960279F2C5
:1009F000930600035480854FFE8663D3FF00BE86B6
:100A000013781801158F631308046385020063537C
:100A1000E0007D172A86B308E5001303000221A831
:100A20008142F1B71373F600118271BF6374B6008F
:100A30002300660005063388C840E34900FF3A8674
:100A40006353070001467D173295118F63880200BA
:100A50006374B500230055007D1705056387030205
:100A6000AA96130800031DA86374B6002300D601DC
:100A700005063388C840E34900FF3A866353070000
:100A800001467D173295118FE1BF2A86B308E50034
:100A9000CDB76374B5002300050105053386A64074
:100AA000E3C9CFFEFD56FD1F6383DF0099E7AA87E8
:100AB0003306E5001308000231A86376B50033065B
:100AC000F101102210A10505F9BF63F4B7002380DE
:100AD00007018507B306F640E349D0FE63530700DC
:100AE00001473A9541018280EFF29F8F2A849D3D14
:100AF00009C523A481826FF0FF90EF00104B75D9D8
:100B000000D9D5BF0D47AA876376C7009377350014
:100B100091C7AA873E966397C706828093F7F50F21
:100B200013978700D98F139707015D8FB308C5000E
:100B3000AA87BD463388F84063EB06039357460007
:100B4000C156B386D7029207AA970D4836963383CB
:100B5000C700BE86B308D34063621803135726004C
:100B6000F156B306D7020A07BA97369665B798C307
:100B7000D8C398C7C10723AEE7FE6DBF910623AE69
:100B8000E6FEC9BF8507A38FB7FE71B763F2A50460
:100B9000B386C500637ED5029345F6FF8147FD17F6
:100BA0006393F50082803387F600030807003387DC
:100BB000C7002A9723000701DDB73387F5008306B6
:100BC00007003307F500850714A3E318F6FE8280BB
:100BD0008147E5BF0DC6AA8785050387F5FF850711
:100BE0009306F6FFA38FE7FE09EB3E968507639316
:100BF000C7008280A38F07FED5BF3686F1FE8280B4
:100C000001476314E600814739A8B307E5008386EE
:100C10000700B387E5009C23B387F640E207E1872E
:100C200099E30507F9FE3E858280AA8703870700BE
:100C300001E73385A74082808507CDBFEFF2CFF76C
:100C40002E89B30B250141112A8CB68563F5AB00C3
:100C50001349F5FFFD5BC169376A00006284930A9E
:100C6000B002130B0002FD19130A8A4B31A81307B7
:100C700050026389E702637374011CA0130514001A
:100C8000B284138614002A8483070600EDF36306FA
:100C90000900637B742F2300040033058441410164
:100CA0006FF00FF501481307D002930630021305C9
:100CB000000331A0639E570113684800268683070E
:100CC000160093041600E397E7FE13680801FDB7CA
:100CD0006395670113688800D5B76395D7001368DB
:100CE0000802E9BF6395A70013681800C1BF138706
:100CF00007FDA54663E6E6040147A546294539A058
:100D00003307A70285043E97130707FD8387040076
:100D1000138607FDE3F6C6FE038604009306E00291
:100D2000FD57631FD604838714002546938614005D
:100D3000138507FD6365A60A8147254529433DA024
:100D40009306A0027D57E399D7FC984193042600AF
:100D50009105E35307FC3307E040136808016DBFBA
:100D6000B38767028506B297938707FD038606005F
:100D7000930806FDE37615FF63D307008147B68429
:100D80008386040013068006014593F8B6FF639539
:100D9000C80013F5F60F8504038604009306900639
:100DA0006303D60663C5C606930680056303D61C97
:100DB00063C3C604930750026307F61A6375740190
:100DC000930750021CA08387040013051400638658
:100DD000071A637375011CB0130524005DB5130673
:100DE000A0026397C7009C4193862400910569B7D0
:100DF000B684814771B7930630066302D60893061E
:100E00004006E31DD6FA13682800A94699A0930668
:100E100030076303D60C63C5C6029306F006630071
:100E2000D61693060007E31BD6F8FD566315D700C8
:100E3000136818002147938C4500C14690411DA8B6
:100E400093065007E303D6FC93088007C146E317D7
:100E500016F71306C006938C4500E301C5FE130682
:100E60008006E31DC5FC904193752800639B051027
:100E700033763601DE852285CD3CE68519B51378BB
:100E8000080163150802BA879306000229A063735C
:100E9000740114A00504FD17E34BF0FE9307F7FF60
:100EA0006343E00005473387E74005079387450024
:100EB00063747401944114A013051400229713065F
:100EC0000002B306A7406344D000BE855DBB6373D8
:100ED000750110A10505F5B783AC0500138D45001C
:100EE00063930C00D28C66853EC63AC442C2353B41
:100EF000B247AA86124822476355F00063D3A70081
:100F0000BE8613780801631E0800BA871306000224
:100F100031A06373740110A00504BA877D17E3CA7A
:100F2000F6FE814763C1D702B68763D306008147C7
:100F30003305F4002A9713060002B307A74063CFD6
:100F4000F600EA853DBB3306F40063777601B3858E
:100F5000FC00838505000CA28507E9B76373750162
:100F600010A10505D9BF6373740110A01305140007
:100F700009BB13680804C146E9BDFD1419B3A146B5
:100F8000C9BD42064186FDB5A38F0BFE39B303A54B
:100F9000C1828280EFF2CFC403A9C182EFF0CFDF1C
:100FA00011CD1384C182AA84084019C1EFF02FEE3D
:100FB000930530042685EFF0EFE504C04A856FF015
:100FC0006FC48280397126CA2ED232D436D62A8690
:100FD00054109305F007138541B53EDA36C606CEA8
:100FE00022CC3AD842DC46DE9139AA8603A5C182DA
:100FF00009E9138541B5F137F2406244D2442161D9
:1010000082802686262D1384C18293E704043EAD98
:101010009307F00763F4D7009306F007138641B5F2
:101020008145EFF00FEC1C40A6AFF9B7EFF24FBBD4
:101030003765000013050543713737650000130558
:10104000C543493737670000376500001307074677
:101050008D4605468D451305C546AD3737650000FD
:101060001305C54885376FF0EFB931C59966137719
:10107000F50F9386C63109C7BA9688220505828086
:10108000C167938707F0E98F81CB21851377F50F2F
:101090003697082325058280B707FF00E98F81CBAB
:1010A00041859377F50FB697882345058280618146
:1010B000369508216505828003A741835C41BA9774
:1010C0006305F502B62395E283A60183638FF600DC
:1010D0009386818390426313F60088C2D44354C13F
:1010E000DC43B306E540BA9794C71045B307C70081
:1010F000630FF500B62381EE938681838C42639360
:10110000A5009CC25441D4C35C413E9710C7828065
:10111000EFF20FAD83A50184376500001305454D3F
:10112000553583A5C184376500001305854E593DAB
:1011300083A5C183376500001305C54F61356FF086
:101140006FACEFF2EFA913F7C5FFE1462E8663F10E
:10115000E60693073500F19B930687FE63EAF604E3
:101160001D8F130687FE23A0C1848966511713843F
:101170004183938606EAD8C394C323A407001CC006
:10118000BA9723A8F182C966938606EAB76500007C
:1011900094C3D8C398C7814605469385455913859E
:1011A00041BDEFF02FE8184023ACE1826FF08FA52E
:1011B000AA85376500001305C5592935C5BFEFF26B
:1011C0002FA239C503A70184130435007198138930
:1011D000018481446366870EB1476373F400314430
:1011E000FD55138541BDEFF06FE683A7818383A58D
:1011F00041838328090026853386B740B38688401B
:10120000138881836368D600138541BDEFF00FEC2E
:1012100081447DA0B384C500BA2003AE440061E7D9
:101220003307CE40930F47FF63EF8F0A138FC184BC
:10123000938EC1831303840183260F0083A30E00C2
:101240001389C1849382C18363EF6F061307C400BF
:101250003297896E3383E500938E0EEA2322C30111
:101260002324C3002320D3010546D8C0B2A00326FF
:101270004300B108630416012E9618C61387C600F2
:1012800022972320E90063F4E30023A0E20009672A
:10129000130707EA9AA0639A970083A60183014780
:1012A000B22305EE19C32320F800138541BDEFF0EA
:1012B000EFE183A78184B10481C7A2852685829747
:1012C00026856FF02F9405463697B2A02320EF00B5
:1012D000E3FFE3FA23A0EE005DBFE385D7FCDC4328
:1012E0000547AE9775BF728631BFEFF26F8F330639
:1012F000B5024111328532C6D9352A8409C5324634
:101300008145EFF03F80228541016FF0AF8F45C5E9
:10131000EFF26F8B83A741842A8491C3829783A7BE
:101320004183138941836366F40883A70183637251
:10133000F408FD55138541BDEFF04FD1835764FF8D
:10134000930944FF81CB035744FF8967938707EADA
:101350006301F7023765000013058554A5318356F4
:1013600044FF035664FF37650000CE8513054556DC
:1013700091398967938707EA231AF4FE938781835B
:101380009843231B04FE63F4E90023A0370113876D
:10139000C1841C43832684FF4E85958F83260900D4
:1013A000B386D940B6971CC3013B138541BDEFF00E
:1013B000EFD16FF08F848280B707002093860700FB
:1013C00001479387070021468C426396A5001315B9
:1013D00047003E9582800507C106E317C7FE014519
:1013E0008280EFE2FFFF2E8941112A844A8532C6AE
:1013F000E137B245136909F8AA8423042401214680
:101400002285EFF02FFD83A7018599C3228582975E
:10141000EF002072D8409307C40091045CC358C405
:101420009CC004C8EF00A07141016FE0BFFDEFE276
:101430003FFB83A741852A8491C38297230404003C
:10144000EF00206F544418489307C400D8C214C357
:101450001CC85CC4EF00A06E6FE0DFFAEFE2BFF6DD
:101460002E89AA89913FAA844845913B2A841DCDA3
:10147000D0448145EFF00FE9214623043401A30451
:101480000400CA852285EFF0EFF483A7018599C394
:1014900022858297EF00E069D8409307C400910449
:1014A0005CC358C49CC004C8EF00606922856FE02B
:1014B000DFF4EFE2FFF283A741852A8491C382978C
:1014C00023040400EF00E066544418489307C40066
:1014D000D8C214C31CC85CC4EF0060662285053DF9
:1014E0006FE05FF2030585007D818280239801868D
:1014F000938741BF13870708DCC39CC3A107E39D03
:10150000E7FE3D472382E18623A4018623AE0186C0
:1015100093874187DCC39CC38280EFE27FEC03A505
:10152000C187EFF09FB47D1593173500138541BF38
:101530003E9508411307C5FE210523A4E186EFE08F
:101540003FCC6FE03FECEFE2BFE9EF00805E8397B6
:1015500001872A89B1E703A5C187EFF01FB17D1587
:1015600013173500938741BFBA97844393878186C9
:1015700080439385C4FE6305B4028CC383A7C186F0
:101580002382A18699C32285829783C7418213054E
:10159000C4019385840093F7F70F81EBEFE01FC838
:1015A0004A85EF00C0596FE0FFE5EF00A059CDBFBD
:1015B000EFE21FE32A84B52B8347440393064401DB
:1015C000C19B93E71700230AF40283475403139740
:1015D0003700938741BFBA97D84314C318CCD4C3FC
:1015E0005CC89387C1879443185C558F98C3812B3F
:1015F0006FE05FE1EFE2DFDE2A84252B184C5448D0
:1016000093074401D8C214C35CC81CCC834754035D
:1016100013973700938741BFBA979843631AF7002F
:101620001387C1871C5C144393C7F7FFF58F1CC356
:1016300039236FE03FDDEFE2BFDAE52993870187C9
:101640009A2305079AA3E5296FE0DFDBEFE25FD974
:10165000CD21138701871E23FD17C207C1871EA353
:10166000634BF00023100700D92983A7818691C31B
:10167000D93D6FE03FD9E121EDBFEFE27FD603A472
:1016800081864529AA842285B5379147230AF40229
:101690001305C404C9242285B1358547631BF500B1
:1016A0003C5C81EB2285613326855129693D6FE0E1
:1016B0007FD583A641871307440123AAE186D8C2B8
:1016C0009387418754C81CCCC5B7EFE27FD12A84E9
:1016D0005105411108CC48C80CD050D014D43A86DA
:1016E00058D49305300236853EC642C4EFF08FC110
:1016F000585410544C5008507117B71600003A96C1
:101700009386A667E92EB24722483716000048CCD8
:10171000230BF402A30AF402232C040281472322A0
:1017200004052324040523280402230A0402232C8D
:101730000406232E04060147A28613068675A28599
:101740001305C404E12A83A7018899C322858297DF
:10175000014541016FE01FCBEFE29FC85049144D96
:10176000795718D954C21307450190C218CD58C9EA
:101770008135D13B6FE01FC9EFE29FC64111B284B2
:101780002E8685452A84368946C03AC63EC442C262
:10179000EFF03FC5024892472247B2464A86A685E7
:1017A0002285253741016FE0FFC503A58186828030
:1017B000EFE27FC141112E89AA85054532C6B68464
:1017C000BA893E8AEFF09FC92A8411C92685EFF0B5
:1017D0001F9F324609E92285EFF0BFCD01442285E3
:1017E00041016FE09FC1AA865288CE872687CA85AD
:1017F0002285E13DEDB7EFE2BFBE252E83A78186AE
:101800000546AA8603C747033D8B631CC702D04B1E
:10181000984F6308E60258C210C303C65703938665
:1018200047010E06138741BF94CF3297504314C22D
:1018300090CF54C3D8CB2126EFF0FFD001456FE005
:101840007FBC3685ED2CDDBF834745030547BD8B47
:10185000639FE702EFE2DFB82A84E12C8347440369
:10186000AA842285C19B93E72700230AF402EFF0A4
:101870007FD81305C404BD2A2685D12483A7818877
:10188000014581C72285829701456FE0BFB77D552D
:101890008280834745030947BD8B6390E704EFE2ED
:1018A0003FB42A8479245448184C93074401AA84ED
:1018B000D8C214C31CCC5CC81305C404252A2685D1
:1018C000BD2C2285EFF0DFCE83A74188014581C77B
:1018D0002285829701456FE0FFB27D558280EFE25D
:1018E0003FB08346650305473317D70018DD094726
:1018F000A30AD502230AE502693F83A7818699C31B
:10190000EFF07FC401456FE0FFAF5449184D9307D6
:101910004501D8C214C31CCD5CC98280EFE25FAC24
:101920004111B2842E86A9452A8436C63AC43EC2E5
:10193000EFF03FAB9247B2462247F99B1CB49307A6
:10194000440144CC14D02324040258D01CCC5CC8DD
:1019500041016FE03FABEFE2BFA82A84D92AAA84F5
:10196000228565372685E12A2285EFF05FAC0145A7
:101970006FE05FA9EFE2DFA62A84652AAA842285A8
:1019800069371C342685F99B1CB4552A83A7C18569
:1019900099C322858297EFE03FB25C503E9508D410
:1019A000492A1387818903284700370600809387D7
:1019B00081891346E6FF98436315F8029386C18830
:1019C0009042050690C29306440154C358C894C37C
:1019D0001CCC1C3493E717001CB4952201456FE022
:1019E0007FA2544B0C546385B6008D8EE378D6FCF1
:1019F000BA87D1B71C35858B85C7EFE27F9E83A759
:101A000081852A8491C382972D22AA842285F53D5F
:101A1000268535221C340145F99B1CB46FE09F9E3E
:101A20007D55828085476381F50263C5B70085C116
:101A3000014582808947638FF5008D47E39AF5FE63
:101A40001C3593E7270009A85C511CC2D5B71C427E
:101A50005CD1F9BF1C35F59B1CB5D9BFEFE2DF9512
:101A6000EFE09FA52A8CF120B70900802A8A938491
:101A7000818993C9E9FF8D4B80406316940052859C
:101A80007D286FE0FF9648481309C4FE3305AC403B
:101A9000E3E7A9FE83A7018999C34A8582974A850E
:101AA000EFF0BFE61C4448448297EFE0FFA083A715
:101AB00041892A8C99C34A858297834754FF13F73B
:101AC000E70FA30AE4FE8D8BE39877FB4A855D352B
:101AD00065B793878189DCC39CC3828082801106AD
:101AE000719A2A8837C7ADDE130506F8AA8713074F
:101AF000F7EE631EF600A167938707882322D6F8C6
:101B00002324B6FA232006F92324F6F8828098C30A
:101B10009107C5B737F700E01C43B7060080D58FA3
:101B20001CC3828037F700E01C43860785831CC3F3
:101B3000828021651305058073150530828073103E
:101B400005308280EFE2DF891387818A184393870B
:101B5000818A19E323A0A18A23A2B18A054798C3E9
:101B6000553F6FE03F8A2A87814718436314A700D7
:101B70003E8582808507D5BFB707EFBE37E700E017
:101B8000938707083CC701458280EFE27F85376570
:101B900000001305855DEFF0EFC201456FE09F8601
:101BA000EFE21F842A84FD54377900007D1463140A
:101BB00094006FE03F85130509D4EFF0AFC0FDB787
:101BC000EFE27F800041AA8437790000B7790000F6
:101BD000631494006FE07F829305C4FE130549D41B
:101BE000EFF04FBE1C4063869700138589D4EFF059
:101BF0006FBD0040F1BFEFE2AFFE2E89EFF0EF8244
:101C00002A84EFF05FA383240900639C2401EFF092
:101C1000FFA3A14763C3870011E0214422856FE041
:101C20006FFE138544FFEFF04F806353A4002A84B6
:101C30008440E1BFEFE24FF80545EFF0EFF7B779E9
:101C40000000130945002A84CA851385C9886537B1
:101C5000AA85AA84377500001386C98813054589AB
:101C6000EFF04FB626852D3F377500001305858DA3
:101C7000EFF04FB54040B7790000054A894A377BFD
:101C80000000B77B0000377C0000B77C0000377D88
:101C900000006315890001456FE08FF5034794024A
:101CA00013858991930644FF2146A685EFF08FB1F5
:101CB0008347840213854C92BD8B638E47011305C5
:101CC0000C93638A57011385CB9391C71147639691
:101CD000E70013058B94EFF0EFAE4C4C9307300206
:101CE000AE8698226306F702105093074006084814
:101CF000B295B386D540B386F602585C5C50898DA8
:101D000013054D95B3D6C602EFF0CFAB004051B7E7
:101D10008506C1BFEFE22FEB41110945EFF0CFE996
:101D200093094500377900002A84CE851305C982BE
:101D3000EFF07FECAA85AA84377500001306C982EC
:101D400013058583EFF00FA82685EFF07FE5377543
:101D5000000013054585EFF0EFA64040377A0000FC
:101D6000B77A0000376B0000639689000145410196
:101D70006FE0AFE81A281C44930644FF130984005F
:101D800036C63AC44A856306F902EFF0DFDD224722
:101D9000B246AA872146A6851385CA86EFF08FA290
:101DA0004A85EFF0FFE113058B65EFF0AFA100402E
:101DB00065BFEFF05FDB2247B246AA872146A685C2
:101DC0001305CA87EFF00FA0DDB7EFE2CFDF4111B7
:101DD0001145EFF06FDE93094500376900002A8452
:101DE000CE8513050967EFF01FE1AA85AA84376540
:101DF00000001306096713058567EFF0AF9C268581
:101E0000EFF01FDA376500001305C569EFF08F9B0F
:101E10004040376A0000B76A0000376B00006396E5
:101E20008900014541016FE04FDD1C441309840026
:101E3000930644FF18486309F9024A8536C63AC436
:101E4000EFF07FD22247B246AA872146A6851385A6
:101E5000CA6BEFF02F974A85EFF09FD613058B657D
:101E6000EFF04F96004065BF2146A68513054A6DE9
:101E7000EFF04F95C5BFEFE20FD541110D45EFF0E3
:101E8000AFD3B7690000130945002A84CA851385BA
:101E9000897CEFF05FD6AA85AA8437650000138697
:101EA000897C1305057DEFF0EF912685EFF05FCF7C
:101EB000376500001305457FEFF0CF904040B779BC
:101EC000000063168900014541016FE00FD39306BE
:101ED00044FF1305840036C6EFF0FFC80348340101
:101EE0005C48B246AA8821472146A68513854981C8
:101EF000EFF04F8D0040F1B7EFE2EFCC4111154507
:101F0000EFF08FCB93094500376900002A84CE8516
:101F10001305896EEFF03FCEAA85AA8437650000CD
:101F20001306896E1305056FEFF0CF892685EFF054
:101F30003FC73765000013054571EFF0AF8840409B
:101F4000376A0000B76A0000376B000063968900AB
:101F5000014541016FE06FCA7A285E28104493065C
:101F600044FF1309840036C63AC43EC24A8563075B
:101F7000C902EFF05FBF92472247B2462A88214646
:101F8000A68513850A73EFF0EF834A85EFF05FC3F0
:101F900013058B65EFF00F8300404DBFEFF0BFBC22
:101FA00092472247B2462A882146A68513058A749D
:101FB000EFF04F81D5B7EFE20FC141111945EFF0B6
:101FC000AFBF93094500376900002A84CE85130509
:101FD0000976EFF05FC2AA85AA8437650000130670
:101FE00009761305C576EFE0FFFD2685EFF05FBBB0
:101FF0003765000013058578EFE0DFFC4040376A65
:102000000000B76A0000376B000063968900014545
:1020100041016FE08FBE1A2C1C44930644FF130944
:10202000840036C63AC44A856306F902EFF0BFB3AE
:102030002247B246AA872146A68513850A7AEFE091
:102040007FF84A85EFF0DFB713058B65EFE09FF768
:10205000004065BFEFF03FB12247B246AA87214654
:10206000A68513054A7BEFE0FFF5DDB7EFE2AFB5DC
:102070005D712545EFF04FB49965130600052A847C
:1020800013094500938545280A85EF40000EB7697E
:102090000000CA8513858960EFF0FFB5AA85AA8480
:1020A000376500001386896013050561EFE09FF135
:1020B0002685EFF0FFAE3765000013058563EFE07E
:1020C0007FF04040D149376A00006316890001451E
:1020D00061616FE08FB21C44930644FF63E0F90234
:1020E00098088A07BA9703A707FB1C282146A685EC
:1020F0001305CA65EFE01FED0040C1BF4647F5B7C5
:10210000EFE26FAC2945EFF02FABB7790000130970
:1021100045002A84CA851385C997EFF0DFADAA85EB
:10212000AA84377500001386C99713054598EFE018
:102130007FE92685EFF0DFA6377500001305C59A05
:10214000EFE05FE84040B7790000377A0000B77AE7
:102150000000631E8900EFE02FB6AA8537750000E6
:10216000130545A0EFE01FE601456FE00FA95C4CA9
:10217000184C1385099D930644FF2146A685EFE080
:102180007FE48347D4FF13858A9E858B99E31305EB
:102190004A9FEFE03FE300406DBFEFE2CFA237651B
:1021A00000001305055EEFE0FFE103A4018BB769B2
:1021B0000000376A000083A7418B6365F400014586
:1021C0006FE0AFA3044009469385495F2685EF4041
:1021D000E00819C55040A68513058A5FEFE09FDE31
:1021E0003104D1BFEFE22F9E37750000130545EA99
:1021F000EFE05FDD03A4018BB7790000377A0000C0
:1022000083A7418B636BF400376500001305856578
:10221000EFE05FDB01456FE04F9E04401946938578
:1022200009EC2685EF40800301E950409385640066
:1022300013058AECEFE01FD93104D9B70545828038
:10224000EFE26F9879712A84AA95930600022547D8
:1022500083070400B38485406385D70A6383E70A54
:102260000145638B0410014913070002A546B3071B
:10227000240183870700638AE7086388D70863140B
:10228000990883A9018B83AA418B377B000063F0F7
:10229000590903AA0900194693050BEC5285EF3042
:1022A000F07B59E54A86A28513056A00EF30107B62
:1022B00041E14A9A83076A00A5EF83A989006388F0
:1022C00009041306800281452800EFE06F9413098A
:1022D0008100CA86A2870145014713080002A5486C
:1022E000294313062002130EC0058385070063846B
:1022F000050163961505631F9702A9476303F5045B
:1023000069A80504B1B705099DB7E31C09F6A287C2
:10231000038707001377F7FD79E73775000013058A
:10232000C5E823800700A285EFE0DFC97D55A9A09D
:10233000B109B1BF23800700050785077DB763108A
:10234000650437750000130585E6EFE0BFC7001888
:10235000B774000083250900138584E81109EFE0B4
:102360007FC6E31989FE3765000013058565EFE038
:102370007FC529452C00829945616FE00F88637EF7
:10238000970005056392C504850705079CC28385F0
:1023900007006381C5026364970069FD8DBF838E6A
:1023A00017006396C5016394CE008507050785076E
:1023B0000507F1BFE37397FE238007000507850734
:1023C0009106E36497F2D1BF9CC2838507006389BD
:1023D000050163871501E30297FC85070507F5B73B
:1023E000E36097FE5DBF850725B7EFD2FFFC83074B
:1023F000050099E781450145EFF0DFDE6FD05FFF13
:1024000003AA018BAA8981440149377B0000B77B6D
:10241000000083A7418B6369FA00EDD04A86A68548
:102420004E85EFE02FFBD9BF03240A001946930520
:102430000BEC2285EF30906221E14E85EF30F060A9
:1024400019042A86A2854E85EF30506115E5631781
:1024500009002285EF30705F2A89A284A68722872F
:102460000386070001EE858F63D327013E89A2858D
:1024700013850BEDEFE01FB5310A61BF830607003E
:10248000FDD2E312D6FE85070507D9BFEFD25FF56F
:10249000EFF04FFA01456FD0FFF6EFD27FF4EFE097
:1024A0003FC701456FD01FF6EFD29FF303A5C18A46
:1024B000EFE0CFC101456FD0FFF4EFD27FF2B787D5
:1024C0000000938787A523A8F18AB7870000938728
:1024D00087BA23AAF18AB7870000938787BA23AC0B
:1024E000F18AB7870000938787BA930500210545D5
:1024F00023AEF18A1384C18AEFE03FDF08C019E9F7
:1025000037750000130545F8EFE0DFAB7D542285F9
:102510006FD05FEFB725000037750000A9472D4742
:102520009306004001469385A5631305C5F9EFF0B6
:102530002FA8AA840840B7750000814601469385FC
:1025400045FAEFE02FAE0144F9D02685EFF02FB920
:102550007DBFEFD2FFE8EFF07FCE0DC5B77500006D
:10256000938505F5138541C7EF30304DB7750000F1
:10257000938505F6138541C7EF30504A138541C74F
:102580006FD05FE8B7750000938585F5E1BFEFD2A6
:102590003FE52A8437750000130505FCEFE09FA294
:1025A000EFF03FFBAA85377500001306A41B130547
:1025B00085FCEFE03FA101456FD0DFE4EFD25FE2A1
:1025C00041112AC6EFD05FFDB24511E93775000011
:1025D000130545F6EFE01F9F41016FD0BFE283A7CF
:1025E000C18AAA841384C18A83A7C720E386A7FE71
:1025F00093053014EFE00F8265F11C4003A5C7205E
:1026000009C9EFE0CF881C40814503A5C720EFE052
:102610000F8F00401306000581451305A41BEFD062
:102620003FDFB7250000231504202326942093853F
:10263000854A2685EFE0AF8C45B7EFD27FD783A7D9
:10264000C18A41119384C18A03C7470213671700E7
:102650002382E70283A7C72091E7EFE05F9319C1C8
:10266000EFF0DFF5EFF0FFEEEFE0DF95377B0000F6
:10267000B77B0000B7790000376A0000B77A000026
:10268000377C0000B77C00009C4085461306F100B3
:1026900003A5C720FD55EFE00F838547631AF500BA
:1026A0000309F100ED4780406319F90008D0E9BF44
:1026B0008840FD55EFE08F99C1BF1C506392A7027F
:1026C0009307B0056315F90089471CD075BF232017
:1026D0000402E30B09FAA5476314F9120149D1A8D2
:1026E0000947E398E7FE23200402930710046312CE
:1026F000F9046E30D1D9FD15C205C1816EB09307C2
:10270000A41B13070005B385E502130600053E85EB
:102710009385A502A295EF305025EF301033137545
:10272000F50F2305A420A305A4202285EFF03FE6A2
:10273000A1BF930720046311F90216347E3013877A
:10274000F6FF63D8E70085077EB09307A41B6E30C1
:102750004DBF9DDA7AB0D5BF930740046310F902EC
:102760008347B42095D31385C9FAEFE0BF8598401D
:102770008347B720FD17A305F72039B79307300427
:10278000E319F9F48347B4200347A420E3FEE7EEFE
:102790003E948305A41B13850AFBEFE0BF8298409B
:1027A0008347B7208507C1BF1385C9FAEFE09F8132
:1027B000050980408347B420E348F9FE13058A6584
:1027C000EFE05F80EFF09FA785471304A41B63151C
:1027D000F5002285EFF07FC1EFF0BFD72286AA85F2
:1027E00013858CFCEFE00FFE80401305A41BEF3037
:1027F000D0251375F50F2305A420A305A42069B5E2
:102800009307F0076305F900A1476315F9088347AB
:10281000B420E38B07E60346A420FD1793F7F70FD8
:102820007D161376F60F2305C420A305F42063F864
:10283000C7049385B71B1385A71B1D8EA2952295F0
:10284000EFE0CFB49C4013854BFB03C7A7203E9716
:10285000230D071A83C5B7209385A51BBE95EFE00E
:102860006FF69C4003C4B7209C4083C7A720E3CDEC
:1028700087E01385C9FAEFE0EFF40504F5B7130517
:10288000CBFBEFE02FF49C4003C7A720BA97238D22
:10289000071ADDBB35478347A4206305E9002947B4
:1028A000631EE90EB9CB035984029147130DA41B93
:1028B00063FB2709930DA41613060005EA856E85B0
:1028C000EF3070081DC91309A4024A8513090905D0
:1028D00013060005CA85EF305009E3982DFF130653
:1028E000000581456E85EFD0BFB20346A420EA857E
:1028F0006E85EF30900795471EB41E347EB0EFF022
:10290000FF9385476312F5029C4083C74702858B7E
:1029100089C713058A65EFE0EFEA88408345A52063
:102920001305A51BEFF0DF91EFF0BFC2EFE08FE9D9
:1029300080401306000581451305A41BEFD05FAD51
:102940002315042091B3630109021305F9FF9307CE
:1029500000053305F50213060005EA851305A502F7
:102960002295EF30407E51D9930D00053305B90310
:102970001306000581451305A5022295EFD05FA936
:102980000A340346A420EA853305B5031305A502DE
:102990002295EF30807D1E348507B9BF1307F00400
:1029A0006374F700230504200346B4208347A42062
:1029B0006370F6089305A61B1305B61BA295338614
:1029C000C7402295EFE08F9C8C4083C7B5203387AA
:1029D000F500230D271B03C74502058B01CB938709
:1029E000A71BBE9513054CD4EFE0CFDD9C4003C47C
:1029F000B7209C4083C7A7206346F40298408347D2
:102A0000A7208346B7208507850693F7F70FA30510
:102A1000D7202305F7209306F004E3F7F6C6231525
:102A200007209DB11385C9FAEFE0CFD90504D1B7CE
:102A3000A297238D271B83474402858BE1D3CA8548
:102A400013850AFBEFE00FD855BF7C41232805040E
:102A5000232A05049C4381CBEFD29F9893058504DC
:102A600082976FD03F9A01458280EFD2DF953689F9
:102A70009DCAAA843284B309D600294A1C20639BCC
:102A80004701BE2C93F7070491C7FC40B545268546
:102A90009C478297FC408305040026859C470504DB
:102AA0008297E31D34FD4A856FD03F95EFD25F9347
:102AB00093F705102A8491C71A2D615513770710D3
:102AC00035CF13F7054011C71A2C6155137707400E
:102AD00035C713F705049304000401E7262C93F48B
:102AE0000404384893F5F50F2EAC39EBA1C76844C0
:102AF0002981420541813105EFE06FEC70442A895C
:102B0000310529824206418281452320A900EFD068
:102B10007FFF232209003E2C2324090023282405BB
:102B200093E707103EAC7C4013060010C145DC4320
:102B3000228582973E2C0145DD8C26AC6FD09F8C80
:102B4000F5DB93E505102EACF5B70948AA8763813C
:102B50000503EFD2FF880D4863820503054763999B
:102B6000E5041A2D1377F7FD1AAD01456FD09F8943
:102B70001A2D136707021AAD01458280328775D678
:102B8000504274454C2D2982A9824206C2064182D8
:102B9000C1826304D6001D45F1F91443B4C7544300
:102BA000F4C7E1D5F443BA853E859442829675BF59
:102BB0007C41DC4382975DBFEFD2FF803684B1CA8F
:102BC0003E2DAA89328993F70710B6849DE37D5A7A
:102BD000A94A83A749044E85DC47829763094501CA
:102BE0002300A900FD14050963035501FDF0058CC0
:102BF0000DA02449368A854AEFE0BFF3FE20DA2093
:102C00002A869444631AF70081EAEFE05FF3330405
:102C1000444122856FD06FFE98403E97034B0700DA
:102C200003A7C9048507C2072983C1834207FEA001
:102C3000418363E4E700239304006394560123A4D3
:102C400004003285EFE0BFEF7D1A2300690105091A
:102C5000E3140AFA6DBF582D854763ECE7023E2D59
:102C600093F707109DC7EFD2AFF72A842849EFE00A
:102C70000FEA3E2C232804041306001093F7F7EF05
:102C80003EAC7C40C5452285DC43829701456FD030
:102C90006FF701458280EFD2AFF43737000013079A
:102CA000A7A418D5373700001307C7AA58D5373758
:102CB0000000130767C518D937370000130787BB13
:102CC00058D9373700001307A7A618DD373700009B
:102CD0001307A7B4420658DD34C14182232A0500F8
:102CE0002320050223220502EFD09F8F6FD08FF1A2
:102CF00093F5F50F85476391F50AEFD2CFEC2049A4
:102D00004111AA847D598549FC402685DC4782977C
:102D10002A8A63072505EFE0DFE15A201C40BA97B5
:102D2000238047015E20F8448507C2072983C183B9
:102D300042075EA0418363E4E7002312040076208B
:102D40005E20639CD7008507C207C1837EA0232431
:102D5000340163E4E70023130400EFE05FDE6DB7A6
:102D60009C5085C3EFE0FFDC5A206E20636EB700F5
:102D7000B305B7402EC6EFE09FDC9C50B2452685D8
:102D8000829741016FD06FE7FC44998DA983C207F8
:102D9000C183B385B740F9BF828001CEEFD24FE443
:102DA0007841B2878E2318433222029701456FD0B3
:102DB0006FE57D558280EFD2AFE2138781CF7843F4
:102DC0002E86AA851843138581CF02976FD08FE393
:102DD000EFD20FE1138781CF78432E86AA8558431F
:102DE000138581CF02976FD0EFE1EFD26FDF1387AA
:102DF00081CF7843AA85138581CF184702976FD07A
:102E00006FE005C611476392E602EFD26FDD7C41A9
:102E10000E2241119C4736C632C482972246B246E2
:102E20002AA2368541016FD0EFDD8146368582804A
:102E30001DC2B28711466390C602EFD26FDA7841A5
:102E4000B2238E235843411136C60297B246410140
:102E500036856FD02FDB814636858280EFD24FD802
:102E6000938781CF4947D8CB37370000130727E036
:102E7000D8DB37370000130707E398DF3737000048
:102E80001307A7D9ECC3B0C3AA850D46138581CF1C
:102E900023A0070223A2070223A4070223A60702F6
:102EA00023A80702D8DFEFD0AFF301456FD08FD54D
:102EB000370500201305056F8280371500201305A4
:102EC000056F8280EFD2CFD1B707002003A7071B81
:102ED0009307803EC1563357F702B7E700E02386D9
:102EE000D7402387D740856623A0D710916623A0BB
:102EF000D710B7F700E023A0070023A20700014680
:102F000090C78146D4C781461306F7FF90CBD4CB38
:102F10003D4798C3EFD02FDEEFF09FF92A84EFF002
:102F2000DFF9AA852285EFE0CFA1377500001305F0
:102F30000504EFE02F866FD0EFCC73110134EFD092
:102F4000FF9CB7F700E023A20700EFD04FD7EFD0E8
:102F5000BF9E7311013473002030814785461307EB
:102F600000023396F6006306A6008507E39BE7FEA2
:102F7000FD573E858280EFD2AFC68545130500021E
:102F8000EF00D0736FD00FC8EFD28FC585452145B4
:102F9000EF00D0726FD00FC7EFD28FC485451145B7
:102FA000EF00D0716FD00FC6EFD28FC3854541457A
:102FB000EF00D0706FD00FC5EFD28FC285451305DB
:102FC0000004EF00B06F6FD0EFC3EFD26FC19D650B
:102FD0003775000001469385850413050573EFF0EE
:102FE000FFE76FD02FC29307400663ECA70093174B
:102FF00045001D651305050E3E951841FD576313E9
:10300000F70001458280EFD2AFBD411113F5F50FF6
:1030100032C6EFF05FFD11C54E2532460845EF0080
:10302000305641016FD00FBEEFD28FBB13F5F50FB5
:10303000EFF07FFBAA87014589C7CE278847EF00BD
:1030400010536FD02FBCEFD2AFB9011113F5F50FAC
:103050003284EFF05FF905C55C412AC6829732459C
:103060005C45FC82C1473ECE8D473ECC09C4154726
:10307000631AE40002CE08454C08EF005043056196
:103080006FD04FB805476315E40091473ECEE5B7D2
:103090006315F40093078002D5BF89476315F400D8
:1030A00093078004E5B791476314F400D147F9BF53
:1030B00099476314F400F147D1BF9D47E31DF4FA2B
:1030C000E147E9B7EFD22FB013F5F50FAE84B2891F
:1030D000368A3A89EFF03FF1994731CD4845EFF014
:1030E000DFE73D472A8499476367A704EFE07FA4A1
:1030F000B146B306D402B7070020138707082A8613
:1031000093870708369783160700639F96004C4302
:10311000639C45012E2363993501184763162701E7
:10312000EFE0FFA1814701A87D576389E600328562
:10313000EFE0FFA09D473E856FD02FAC31453305B2
:10314000A4023E9506A12322450123113501232423
:1031500025013285F1B7EFD2AFA813F5F50FEFF0E7
:103160009FE819471DC94845EFF03FDFBD472A8456
:10317000194763E4A702EFE0DF9BB1473304F40291
:10318000B7070020938707087D57A297839607000B
:103190006398E600EFE0BF9A01473A856FD08FA6AB
:1031A00041677D1798C323A2070023A40700DDB75A
:1031B000EFD26FA1011113F5F50F328AEFF0BFE2E4
:1031C000994721C185442A8463159A104845EFF038
:1031D000DFD83D47AA8499476365A702EFE07F9552
:1031E000B14AB38754033709002013090908AA8993
:1031F0003E9903170900FD576319F700EFE03F946C
:1032000099473E8505616FD04F9F5C408297854509
:103210000545EF00B04A5C440D473AC47C823EC885
:103220008357290002CA52CE638C4709C1C7094798
:10323000638DE70808444C00EF0070271844B71767
:103240000140938607C005456302D7020945630F15
:10325000F700938707400D45630AF700B727014041
:103260009387078001456313F700114593F5F40F29
:10327000EF00B0310808EF00701A9D6793870706CA
:103280008E04BE94D04037E700E093060005B307F4
:10329000C7002380D740935756009387070485467D
:1032A0008A07B396C600BA9794C34E85EFE03F896C
:1032B000814781BF930780023EC6A1473ECC9DBF98
:1032C000930780043EC656CCB5B791473EC6C1476A
:1032D000F5B79947E3170AF24845EFF01FC83D4795
:1032E0009947E360A7F2931735001D65130505069E
:1032F0003E9558419357570093870706B394E400CF
:103300008A0737E700E0BA9784C35DB7EFD24F8DE5
:10331000EFF0BFC4B1473305F502B707002093872C
:1033200007083E955C4199C3084582976FD08F8D01
:1033300073110134EFD08FDD0545EF00D01419C5AE
:103340000545EFF0BFFC0545EF00D015EFD0CFDE0F
:10335000731101347300203073110134EFD00FDB8F
:103360000945EF00501219C50945EFF03FFA09452C
:10337000EF005013EFD04FDC731101347300203095
:1033800073110134EFD08FD81145EF00D00F19C55C
:103390001145EFF0BFF71145EF00D010EFD0CFD9B6
:1033A000731101347300203073110134EFD00FD644
:1033B0002145EF00500D19C52145EFF03FF521459E
:1033C000EF00500EEFD04FD773110134730020304F
:1033D00073110134EFD08FD34145EF00D00A19C5E6
:1033E0004145EFF0BFF24145EF00D00BEFD0CFD415
:1033F000731101347300203073110134EFD00FD1F9
:1034000013050002EF0030081DCD13050002EFF098
:10341000FFEF13050004EFF07FEF13050008EFF056
:10342000FFEE13050010EFF07FEE13050020EFF024
:10343000FFED1305003EEF00F006EFD0EFCF731164
:1034400001347300203013050004EF00D00355FD54
:1034500013050008EF0030034DF913050010EF00CD
:10346000900245F513050020EF00F00159FDF1B77A
:1034700073110134EFD08FC913050040EF00B00085
:1034800029C113050040EFF07FE8056513050580AD
:10349000EFF0DFE70565EFF07FE70965EFF01FE785
:1034A0001165EFF0BFE62165EFF05FE641651305BA
:1034B00005C0EF00207FEFD02FC8731101347300D7
:1034C0002030056513050580EF00E07B5DF905659B
:1034D000EF00607B5DF50965EF00E07A5DF1116555
:1034E000EF00607A59FD2165EF00E07959F9E1B705
:1034F00001458280EFC2DFEE9C412041A14641118F
:103500001CC0B1473EA4DC412316040013F7F700AA
:103510006301D702A546631ED70005675AA013D7DB
:1035200047000D8B01C785466308D70023130400AD
:1035300031A023120400E5B709677AA099838D8B27
:1035400005476389E70081C709476389E7062314B4
:10355000040021A0930700601EA41848B74701404B
:10356000938707806318F704116585451105EF00FF
:10357000F01493070020B71401407C820D49E14705
:103580004C00138504803EC64AC4EF004072930786
:1035900000407C824C009147138504803EC64AC49B
:1035A000EF00E0700848A285EF00502B08488545E1
:1035B000EF009036014541016FC0DFE49307004002
:1035C00061BFEFC25FE0B7140020138484749307D7
:1035D00050035CC837190020B74701401306096F34
:1035E0009387078074461CC89D67938747737CC286
:1035F000B70700C0F58FC166A1062167130727A191
:10360000D58F1165411138C67CC68545B7070C00BA
:10361000110518C01CC42322040023160400EF0067
:10362000F009930700207C82B71901408D473EC402
:103630004C00E147138509803EC6952D930700088D
:103640007C8289473EC44C0093078004138509801F
:103650003EC6B12D084893858474EF003020084899
:103660008545EF00702BB7750000938684741306B0
:103670003010938505041305096FEFF0CFE1014584
:1036800041016FC09FD7EFC2BFD520419305000213
:103690000848EF00302D19C51C48CA231375F50FD3
:1036A0006FC05FD67D55EDBFEFC29FD324412E84FE
:1036B000884893050004EF00F02A7DD99C48420415
:1036C0004180C2A305456FC0FFD3EFC27FD1C14780
:1036D0003841638BF502C5476395F502544B0546A7
:1036E00093D75600938707063316D6008A07B7E6A6
:1036F00000E0B69790C30146084B93055052EF0087
:10370000102301456FC01FD0544B054693D7560078
:10371000938707043316D6008A07B7E600E0B6970A
:1037200090C30546D1BF411122C626C4731101348E
:10373000B7140020EFD08F9D9387046FA0439305AB
:1037400050520848EF00B02219C985451385046F0F
:10375000EFF00FDA084893055052EF001025EFD034
:10376000AF9D731101343244A244410173002030F3
:1037700073110134EFD08F9937750000130545752B
:10378000EFD05F84EFD04F9B731101347300203072
:1037900073110134EFD08F973775000013058574CE
:1037A000EFD05F82EFD04F99731101347300203056
:1037B000EFC21FC3411103A5018C85461306F1001A
:1037C000FD55EFC05FF08547E317F5FE888741019F
:1037D0006FC05FC3EFC2DFC0B717002086059387B5
:1037E0000777AE979E232A8437350140130505C01D
:1037F0005EB585835EB98545EF00F0003715002082
:103800001305057622951C21854585071CA13715D2
:103810000140130505809D236FC0DFBE37170020D0
:10382000930707763E951C21814613070776FD17FF
:103830001CA141468147B305F7008C218507AE9650
:10384000E39BC7FE95E2EFC2BFB937350140814522
:10385000130505C0EF00207B371501408545130592
:103860000580192B6FC01FBA8280EFC27FB7056534
:10387000797185451305458002D002D202D402D663
:1038800002C402C623180100152D93070010FC8204
:1038900037190140E1473ECE4C088947130509809E
:1038A000373401403ECC212185449307D0102C00B1
:1038B000130504C03EC426C60D25C16793870706BD
:1038C0000C10130504C03ED02313910223140102EF
:1038D000552D130504C085459927130504C081455E
:1038E000BD27130504C08545B127C1474C08130502
:1038F00009803ECEE482652E37750000130505046D
:10390000EFC09FC99305001023A0A18CEFC09FD0EA
:1039100045616FC03FAFEFC23FAA4111EFF0FFF426
:10392000B777000083AB4776B777000003AB8776A5
:10393000B777000083AAC776B777000003AA077796
:10394000B777000083A94777371400201304047762
:103950008144130900082685EF20C049DE85EF2049
:10396000C007AA855A85EF009005D685EF10B05D97
:10397000AA855285EF10301BCE85EF102064EF2012
:1039800000420AA085040904E39724FD13090008F6
:1039900093090009EFF0DFE193178501E1872A849D
:1039A000E3DA07FE9374F500EFF09FE02AC6137484
:1039B000040FEFF0FFDF2A8663062401B245E31B04
:1039C00034FD09E52685EFF07FE5E9B72685EFF0C0
:1039D0007FE0C9B7B71702409843B706FFF8411117
:1039E0001367170098C3D84337060200758FD8C3F2
:1039F0009843B706F7FEFD16758F98C39843B70630
:103A0000FCFFFD16758F98C3D843B70681FFFD16DE
:103A1000758FD8C39843B70600ECFD16758F98C311
:103A20003707FF0098C723A6070202C402C69843BF
:103A3000C166558F98C3B716024005679C42F18F47
:103A40003EC6A24785073EC4B24781E7A247E39737
:103A5000E7FEB71702409C431397E700635607063B
:103A600085473EC632478547631EF704B7170240B5
:103A7000D843B706C1FFFD16D8C3D843D8C3D8432F
:103A800013670740D8C3D843758FD8C3D843C166DE
:103A9000558FD8C39843B7060001558F98C39843F4
:103AA00093166700E3DD06FED843B7160240719B0C
:103AB000D8C3D84313672700D8C32147DC42B18B52
:103AC000E39EE7FE4101828002C669BF01A001A01A
:103AD00001A001A001A001A001A001A001A001A0DE
:103AE00001A001A001A001A001A001A001A001A0CE
:103AF00001A001A001A001A001A001A001A001A0BE
:103B000001A001A001A001A001A001A001A001A0AD
:103B100001A001A001A001A001A001A001A001A09D
:103B200001A001A001A001A001A001A001A001A08D
:103B300001A001A001A001A001A001A001A001A07D
:103B400001A001A001A001A001A001A001A001A06D
:103B500001A001A001A001A001A001A001A001A05D
:103B600001A001A001A001A001A001A001A001A04D
:103B700001A001A001A001A001A001A001A001A03D
:103B800001A001A001A001A001A07390123497D15F
:103B9000FF1F938121E217C100201301A1461745A1
:103BA00000001305650297C5FF1F9385A545138681
:103BB000818163FAC5008322050023A05500110509
:103BC0009105E3EAC5FE1385818197E5FF1F938583
:103BD00065CA6377B500232005001105E36DB5FEC6
:103BE000FD42739002BCFD4273904280B782000098
:103BF0009382028073A0023097C2FFFF9382024437
:103C000093E2320073905230EFF0DFDC97D2FFFF87
:103C10009382229873901234730020305841032805
:103C200005004C4537060140930706403E979346F2
:103C3000F8FFB1C583250640F58D2320B640D0435B
:103C4000F18ED4C31443B3E6060114C31841904760
:103C50009346F7FF758E90C7D047F18ED4C71445B1
:103C600041466399C6009447D98E94C7D447558F6F
:103C7000D8C78280B6979443558F98C382801C43DF
:103C8000F58F1CC38280B70701401387074083A7C5
:103C90000740584B698F09C77D8D3335A00082805E
:103CA00001458280B707014023AAA74082809C4536
:103CB00013F7070113F8F70001C7D8413368E8008C
:103CC0008E2113F7F50F39C318418146854E3D4FBC
:103CD000930F800293028004214E3396DE00B3F8E6
:103CE000C500631116039398260033131F01134375
:103CF000F3FF3377E300B318180133E7E800639F5D
:103D0000F70550C98506E39AC6FD18C11307F00FE1
:103D10006375B70454412146854E3D4F930F800291
:103D200093028004414EB398CE0033F7150163929D
:103D3000E8021317260001173313EF001343F3FFB4
:103D4000B376D3003317E800D98E639DF701232A99
:103D500015010506E319C6FD54C18280E39457FAA4
:103D600010C94DB7E39757FE23281501DDB7084565
:103D70006D8D3335A00082800CC982804CC9828051
:103D800019C20CC982804CC9828013F7C50F93F702
:103D90003500B7050140BA9594458A073D4733176A
:103DA000F7001347F7FF758F98C598453315F50051
:103DB000598D88C58280371702405C439146B18B8C
:103DC0006385D700A1466382D706B7177A00938729
:103DD00007201CC1371602405C423707002013073A
:103DE00007149183BD8BBA9794231C41B3D7D70096
:103DF0005CC15442A1829D8ABA969422B3D6D70060
:103E000014C55442AD829D8A36971823B3D7E70074
:103E10005CC55842398393763700138741803697C3
:103E20001823B3D7E7021CC982805C43544341671F
:103E3000C983F98E37F7FF1F0327C770BD8B89072A
:103E40001316170163480600454601476392C702EF
:103E5000C94739A809476389E7023D476388E702F4
:103E600041476388E702454601476393C700C1475E
:103E700085E6B746024083A60680C18A8DC6B7167E
:103E80007A009386062025A00147D9B70547B54794
:103E9000C5B70147BD47E9BFB7160240D4421396E4
:103EA000E600E35E06FCB7163D0093860690B387F6
:103EB000D7021CC105D31C41858321BF99C5371783
:103EC00002401C4F5D8D08CF8280B7170240984F8B
:103ED0001345F5FF798D88CF82801E213737014049
:103EE000930607C0C207C1836300D504B70600402C
:103EF000630CD502938606406308D502B7160040CE
:103F0000138606806302C502938606C0630ED50041
:103F100013070740630AE50037570140930607C0BF
:103F20006304D5006316E500BA2193F7F7F8D98F3B
:103F300037170040630CE500130707406308E500EE
:103F400093F7F7CFFA21C207C183D98F1EA1DE21D3
:103F50005EB59E211EB5B7370140138707C0630EBB
:103F6000E50093870740630AF500B75701401387C0
:103F700007C06304E5006314F5009C251EB985475E
:103F80005EA982801E31922103D82500C207C18319
:103F9000F99BC207C1831EB11E3156211A2DC207DB
:103FA000C183420741831377C7F8518F9225F59B50
:103FB000C20633660601D18F37360140130806C0AA
:103FC000C182630E050113060640630AC500375619
:103FD0000140130806C0630405016310C502B22541
:103FE000DD9B03D8E500D18FD221ED9B93F6F6CF70
:103FF000D18FD22533660601D18E56A11AADFA2192
:104000005AB91EB182801E2189C593E717001EA1EF
:104010008280C207C183F99BC207C183CDBF83578A
:10402000450491C52167D98F2312F5048280C60704
:10403000C583DDBF1E2189C593E707081EA18280C5
:10404000C207C18393F7F7F7C207C183C5BF1E2D0F
:10405000C207C183DD9BDD8D0EAD8280EFC24FB8FC
:104060001629F577FD17F58FF621DA257971D58FA9
:104070001EA95625FD779387379FF58FD6212A8471
:104080002EC6D58F9625D58FB625D58F5EA55E29F0
:10409000C207C18393F7F7CFD98F5EA96808EFF005
:1040A0009FD1B747014093870780B245631AF40454
:1040B000A25756246547B387E702C206C1869841D6
:1040C00063D20604060752244206B3D7E702130759
:1040D00040064186B3D6E702B3F7E702920663557E
:1040E00006028E0793872703B3D7E70213F77700FB
:1040F000B367D700C207C1831EA445616FC08FB0EC
:10410000925745BF0A07C1B7920793872703B3D7D2
:10411000E702BD8BD58FF9BF91C55E250967D98FA1
:104120005EA582805A25F977FD17F98FD5BF13F761
:10413000F50F85471583B395B7006319F70093070B
:10414000C500984301CED98D8CC3828089469307E0
:104150004501E318D7FE93070501E5B793C5F5FFC1
:10416000F98DDDB70A216D8D3335A000828013F7FC
:10417000F50F85461583B397B6006311D7025A250C
:10418000F98F1A2101454207418381CB0545A18161
:10419000B315B5006D8F3335E00082808946631416
:1041A000D7001A29F1BF5A29E1BFA1818547B397EA
:1041B000B70093C7F7FFC207C1831EA182801D719C
:1041C00062DC138C8180A2CCA6CACAC8CEC686CEB9
:1041D000D2C4D6C2DAC05EDEAA842E84312E8329F0
:1041E0000C00FD572A896385F906A2852285EF1008
:1041F000503739EDA6852685EF10B03693050000BF
:10420000631605122685EF10203D25E19305000079
:104210002285EF10603C61E185473EC426859737D3
:1042200000009387A7583EC602D4EF1010492AC851
:1042300022852ECAEF1070482ACC2ECE02D002D290
:1042400063880912973700009387475303A9070033
:10425000F64066444A85D6444649B649264A964AB7
:10426000064BF25B625C256182804A85EF00103765
:1042700063010512930500004A85EF10E03569F9E6
:104280002685EF00B03569D52285EF00303569D13C
:1042900091473EC4268597370000938727513EC635
:1042A00002D4EF1090412AC822852ECAEF10F040A8
:1042B00003270C002ACC2ECE02D002D289476306F7
:1042C000F7002800EF00F0304DE9EF10506793073A
:1042D00020021CC15DA02285EF00503035D9930526
:1042E00000002285EF10603DE35405F685473EC48B
:1042F0002685973700009387674B3EC602D4EF10A0
:10430000D03B2AC822852ECAEF10303B83270C00F1
:104310002ACC2ECE639C071002D002D22800EF00D8
:10432000502B63000512A257B9CF91A82285EF1038
:10433000A02AE31F05F085473EC426859737000075
:104340009387C7463EC602D4EF1030372AC822856D
:104350002ECAEF109036173700001307A7421043FC
:1043600054432ACC2ECE894732D036D2E38CF9EC96
:104370002800EF001026630C050CA25789C7EF1028
:10438000105CA2571CC102559255EF10D03D2A89EE
:10439000C1B52685EF009024E30E05EC2285EF00E1
:1043A000F023E30905EC2685EF1030312A8B2285B6
:1043B000AE8BEF1090302A8AAE8A4A85CA850329CF
:1043C0000C00EF10101A631E050E9737000093873C
:1043D000A73A8C438D4722853EC4973700009387C8
:1043E000E73C3EC602D45AC85ECA52CC56CEEF1045
:1043F00080352A846313090697370000938787392D
:104400009843DC439305000026853AD03ED2EF1056
:10441000C02A634705062800EF00B01BE31505F02E
:10442000EF10F051930720021CC1F5BD9736000034
:104430009386C6359042D442094732D036D2E39FA4
:10444000E7ECEF10D04F930710021CC1E9BDEF104D
:10445000104F930710021CC10DB7973700009387C8
:1044600067349843DC439305000026853AD03ED25A
:10447000EF10A024634805028947E303F9FA61BFFE
:104480002285EF005017A285EF10001505C9973758
:1044900000009387A7309843DC4303290C003AD0EF
:1044A0003ED2D9BF2285EF001015A285EF10C012B1
:1044B00011C5973700009387672DF1BF03290C00C2
:1044C00065BF85473EC4973700009387272E3EC6B9
:1044D00002D45AC85ECA52CC56CEE30F09E2930505
:1044E00000002E85EF003064EF10301D2AD02ED250
:1044F0008947E308F9F41DB5B70700805D7193C7DC
:10450000F7FFA6C286C6A2C4CAC04EDE52DC56DA87
:104510005AD85ED662D466D26AD06ECEB3F4B700F3
:10452000B1C033F4A700B707807F2A8A63D6870219
:104530002644B64096440649F259625AD25A425B22
:10454000B25B225C925C025DF24D17250000130500
:10455000A53C61616F00700963DB9702B707803F7C
:10456000E318F4FC97370000938747219C43B6403B
:10457000264496440649F259625AD25A425BB25BCB
:10458000225C925C025DF24D3E8561618280AE8963
:10459000814A634C052CB707807F6381F430B707ED
:1045A000803F2A892E8B638CF434B7070040638DDB
:1045B000F936B707003F6391F93063550A38EF00C9
:1045C00090013707807FAA87630DE43063090430C8
:1045D000B706803F630AD42E1357F901130DF7FF76
:1045E00033E6AA01630706343706004D635B96364F
:1045F000138676FF635E86689D0663C6866E97396E
:1046000000009389A91783A509003E85EF10E03CBF
:10461000973700009387471B8C432A84EF10A01222
:10462000973700009387871A8C432A892285EF10D9
:104630008011973700009387A7198C43AA8422859D
:10464000EF106010973700009387C718AA8588433A
:10465000EF10A038A285EF10000F97370000938766
:10466000A711AA858843EF104037A2852A8A2285A0
:10467000EF10600DAA855285EF10E00C973700000F
:10468000938787158C437D74EF10E00BAA852685F0
:10469000EF10A034AA85AA844A85EF003012698CF5
:1046A000CA852285EF106033AA852685EF10E03297
:1046B000AA8BFD1A33E7AA01631907509737000048
:1046C0009387071003A90700FD74B3F46401A6855E
:1046D0005A85EF108030A285EF10E0062A8ADA852D
:1046E0005E85EF104006AA855285EF00300DA68545
:1046F0002A8A2285EF102005AA8BAA855285EF0011
:10470000F00B13141500AA84AA875E8CAA8C05806E
:104710006350A04C37070043634E8754630AE4524A
:104720003707003F814A014B6342874C173700002F
:104730001307C70D0C437D747D8C2285EF10A000FC
:10474000AA8BE2852285EF104029AA855285EF10B9
:10475000C028973700009387A70B8C43EF00B07EEB
:10476000973700009387070B8C43AA842285EF00BC
:10477000907DAA852685EF007004AA84AA855E85AF
:10478000EF00D003DE852A84EF102025AA85268538
:10479000EF10A0242A8AA2852285EF00D07A9737CD
:1047A0000000938767078C43AA84EF00D07997377E
:1047B00000009387A7068C43EF102022A685EF0008
:1047C0009078973700009387A7058C43EF00007F10
:1047D000A685EF005077973700009387A7048C4396
:1047E000EF10A01FA685EF00107697370000938783
:1047F000A7038C43EF00807CA685EF00D074AA85C8
:104800002285EF10801DAA84AA852285EF00B0734F
:1048100097370000938787018C43AA8B2685EF107A
:10482000C01BAA855E85EF001030AA84D285228540
:10483000EF007071D285EF006078AA852685EF10B1
:10484000C019A285EF106019AA8503A50900EF1011
:10485000C018B387AA0013D77741635CE0483E8550
:10486000CA85EF00506EAA8719B3B707804B63D390
:10487000F404B707803FE3C4F4D21307600993D769
:104880007441B307F74033D7F440B317F700E39808
:1048900097D0058B894AB38AEA4011B3B707803FA6
:1048A000E302F4CC63DA8706AE87E3D209CC930740
:1048B000000075B9894AC5B1392B3707807FAA87AF
:1048C0006304E400E31604D063DB0900173700003B
:1048D0001307C7EA0843BE85EF00F024AA87E35810
:1048E0000AC8370780C0229733675701BE8539C38E
:1048F0000547E39EEAC637070080B98F8DB9AA87BE
:10490000E3D709C617370000130747E70843CA85EE
:10491000EF007021AA87A1B9B7070080AD8FE3C867
:1049200009C493070000A1B1AA85EF00D061AA874E
:104930003DB9CA852E85EF10400AAA85EF00B01E4A
:10494000AA8735B12644B64096440649F259625AC0
:10495000D25A425BB25B225C925C025DF24D6161B5
:1049600069AEB706807FB3F62601814599EA97368E
:1049700000009386A6E68C423E85EF00D05C2A8438
:10498000A15537058000935674419307F5FF37C64C
:104990001C00938616F8E18FB704803F1306164774
:1049A000AE96DD8C6351F62A37B65D001306663D80
:1049B000635DF62E97390000938949DC8506898C62
:1049C00003AA0900930700003EC63EC4814DD2856C
:1049D000268536C2EF1060002A8CD2852685EF002E
:1049E000E05DAA8503A509007D74973B0000938BC9
:1049F0006BE0EF005013AA852AC06285EF00B05427
:104A000093D71440B7050020CD8FB7050400AE97AB
:104A1000BE9D3379A400AA8CEE854A85EF00B05282
:104A2000AA856285EF00707B2A8CD2856E85EF00A7
:104A3000D07AAA852685EF00507ACA85EF00B0505B
:104A4000AA856285EF0070790248C285EF00B04FF9
:104A50002A8AE6856685EF00104F97370000938716
:104A600027D88C43AA84EF00104E97370000938715
:104A700067D78C43A123A685EF00F04C9737000041
:104A8000938787D68C431D2BA685EF00D04B973795
:104A90000000938727D48C431523A685EF00B04AE6
:104AA00097370000938787D48C43092BA685EF00A6
:104AB0009049973700009387A7D38C4301232A8C12
:104AC000A6852685EF003048AA856285EF00B047AD
:104AD000AA84CA856685DD21D285EF00D046A685E9
:104AE000F129AA84CA854A85EF00F04583A50B0009
:104AF000AA8DE921A685D921337CA400E2854A85C7
:104B0000EF00704483A50B002A896285EF00F06CEA
:104B1000EE85EF00906CAA852685EF00106CE68587
:104B2000EF007042AA84E2855285EF00D041AA8549
:104B300026856921AA8BAA854A85492197370000D5
:104B4000938787CB8C43337AA4005285EF00B03F24
:104B5000AA84CA855285EF005068AA855E85EF0059
:104B6000D06797370000938767C98C43EF00B03D4B
:104B7000973700009387C7C88C432A895285EF0076
:104B8000903CAA854A851D29A2450D2992462A896D
:104B90003685EF1020262A8ACA8526850521B24B44
:104BA000DE852929D2851929698CD2852285EF00D5
:104BB000D062DE85EF007062A685EF001062AA85E4
:104BC0004A85EF009061AA8BEDB403A90900EDBC02
:104BD0003707164363448710E314E4B4DE85EF001F
:104BE000D05FD285EF001025635A050E5D8437062D
:104BF0008000930724F8B357F640A69793D67741E1
:104C000093F6F60F1307F6FF938616F8B355D740C1
:104C100033FBE7005D4793C5F5FF336BCB00B3066D
:104C2000D740FD8D335BDB4063D40C00330B604118
:104C30005E85EF00905AAA852A8C52854126AA8764
:104C4000931A7B01E5B497390000938929B38DBB92
:104C500097370000938707BB8C4352858526AA8A25
:104C6000DE852685EF007057AA855685EF00901CDB
:104C7000E35EA0F6173400001304C4B40C404A8568
:104C8000EF00702C0C40EF00102CAA876FF03F8EC5
:104C9000E3DF09C0973700009387C7B28C432E85A6
:104CA000EF00702AAA876FF09F8C973700009387D8
:104CB00067B09C43B70D200097390000938909AC79
:104CC0003EC697370000938727AF9C433EC4973773
:104CD00000009387A7AE03AA0700D5B917340000D8
:104CE000130484B261BFE34730FB930700006FF009
:104CF0001F88DA85F92AAA879DB6411193171500F6
:104D000022C406C685833707807F2A84AA8563F874
:104D1000E708C9C3AA876341050A698F935675419D
:104D200005E3131785006343070A014711A0328783
:104D300086079395870013061700E3DA05FE998E20
:104D4000370780001306F7FFF18F938616F85D8F03
:104D500013F616009317170029EE13D816400145D5
:104D6000E5468145370700013386E500FD1663C639
:104D7000C700B305E600918F3A9586070583EDF6E7
:104D800099C3050579990585B705003FAA9593163E
:104D90007801B695B24022442E8541018280EF0011
:104DA000901AA285212CB2402244AA852E85410169
:104DB00082809317270055B7EF003042AA85A523BC
:104DC000B2402244AA852E85410182807D57998E6A
:104DD00085BF014582800605058182800605B707EB
:104DE000807F05813325F500828097370000938707
:104DF00027A488438280011122CC37040080134409
:104E0000F4FF3377A4009357770106CE26CA4AC829
:104E1000938717F85946AA85634FF60431C7935410
:104E2000F50163C70706370780007D173357F74042
:104E30003376E50015CA05833376E50009CA1347C2
:104E4000F7FFB7052000698FB3D5F540D98D93875B
:104E500001818A04BE94804022858D222AC6324573
:104E6000A285EF009037AA85F2406244D2444249BD
:104E70002E8505618280B707807FE367F7FE3D2AB4
:104E8000F2406244AA85D24442492E85056182805F
:104E900093179500A58313962400138701813297F9
:104EA000B305F04003290700DD8DA581B707400059
:104EB0003707F0FF698FFD8DD98D4A8501222AC6FB
:104EC0003245CA85EF007031618D9395F401C98D2B
:104ED00061BF9317150085832A87A9C7411106C6AC
:104EE00022C43706807F63F9C702B376C5002E84DB
:104EF0009DEA973700009387E7938C43EF00B00457
:104F0000D177938707CB2A876348F4069357754177
:104F100093F7F70F9D1709A8AA854D20B2402244A8
:104F2000410182808280DD83A2979306E00F63CCEB
:104F3000F6006349F002A95663D7D704B167938797
:104F4000073563D08706973700009387A78780438C
:104F5000BA852285A128A285EF00E07EB2402244D6
:104F600041018280B2402244370780807D17798DCD
:104F7000DE075D8D41018280973700009387C788E7
:104F80008C43D12761BF173700001307E78A0C4312
:104F9000370780807D17E507DE07798D5D8D6527F2
:104FA000B5BF973700009387278655B7B7070080AE
:104FB00013C7F7FF798DFD8D4D8D82804111370725
:104FC00080007D1713D8750126C293547501337381
:104FD000A70093F4F40FB376B7004AC01378F80F24
:104FE0001359F50106C622C4FD819A8726854A8693
:104FF000131E3300939E3600B3880441630AB90E32
:105000006350100D630408149307F00F638BF414BE
:10501000B7070004B3EEFE00ED4763C117299307FD
:105020000002B3871741B397FE00B3D81E01B33710
:10503000F000B3E7F800B307FE4013975700635E34
:105040000718370400047D147D8C2285EF1040087A
:105050006D15B317A4006348951A058D1304150048
:1050600013070002018F3397E7003337E000B3D70F
:105070008700D98F814413F7770019C713F7F7001A
:1050800091466303D700910713975700635B07149A
:1050900085041307F00F4A866383E4169A07A583F5
:1050A00013F5F40FB2402244A6079314750113D5EB
:1050B0009700458D7E0692440249518D41018280C0
:1050C0006399080A138714001377E70F631707140F
:1050D00063900422630D0E1EE3860EFCB307DE41CF
:1050E0001397570063500722B387CE412E8961B7CB
:1050F000635C100B630E08089307F00F6383F406DC
:10510000B7070004B3EEFE00ED4763C9171F93070E
:105110000002B3871741B397FE00B3D81E01B3371F
:10512000F000B3E7F800F297139757006357070AA8
:1051300085041307F00F6384E40CB706007E13D7D1
:105140001700FD16858B758FD98F35B7638D0E08C7
:10515000FD18B307DE41E38208EE9307F00FE39DED
:10516000F4EA630D030801461305F00FB70740008A
:1051700015BF33079840EDE863020E147D176308EE
:1051800007189307F00F6319F80E2E893683D1BFE5
:10519000638B0E04FD18B307DE01E38708F893075D
:1051A000F00FE393F4F675BF63950808850413F7D1
:1051B000E40F6313071263170510630F0E14E383E4
:1051C0000EEEB307DE0113975700814463570700C3
:1051D000370700FC7D17F98F854413F77700E31F2D
:1051E00007E813D337009307F00FE38CF4F6931717
:1051F0009300A58313F5F40F4A866DB54A8613050F
:10520000F00F814745B5370700FC7D17F98F13F77D
:105210007700898CE31407E6E9B73304DE4193177E
:10522000540063C3070CE31204E2014601458147C1
:1052300095BD33079840ADC49307F00FE308F8F429
:10524000B7070004336EFE00ED4763CCE70C93070D
:105250000002998FB317FE003357EE00B337F0000A
:10526000D98FF697C284C9B59307F00FE30FF8F012
:10527000B7070004336EFE00ED4763C3E7089306EB
:105280000002998EB316DE00B357EE003337D0001C
:10529000D98FB387FE40C2842E8945B3854761BB51
:1052A000630E0E067D17B307DE01C284E30E07E628
:1052B0009307F00FE31AF8F8368365B53683C28496
:1052C0002E8915B7E3040EECE38D0EE869BD638DFE
:1052D0000E022E86B687F9B39307F00FE381F4F23E
:1052E000B307DE018583D5BD3384CE412E89B1BBA2
:1052F000E31C0EFCE3890EE62E8949BD854725B5E2
:10530000854741BFE39B07EC0146814761BBB387FB
:10531000CE41C2842E8915B3B68769B33683C28461
:10532000D9B585473DBF3971935775014AD856D2D3
:105330005ECE931A95001359F50106DE22DC26DABB
:105340004ED652D45AD093F7F70F93DA9A00CA8BFD
:10535000638207121307F00F6384E7128E0A370780
:105360000004B3EAEA00138A17F80144014B93D70B
:1053700075019394950093F7F70FA58093D9F501E4
:10538000FDC71307F00F6387E7028E04938717F8B2
:1053900037070004D98C330AFA408146558C172709
:1053A00000001307A7490A043A941C403349390105
:1053B000BA978287130A1AF0F9E88946558C17279D
:1053C00000001307A74B0A043A941C4033493901E3
:1053D000BA97828701491307F00FB707400013956A
:1053E0009700F25062549317770125817E095D8DF5
:1053F00033652501D2544259B259225A925A025B5E
:10540000F24B216182801307F00F8147C9BFA68A42
:10541000CE8B368B8947630BFB1A8D47E30CFBFA67
:105420008547630AFB0A1307FA0713F91B00635742
:10543000E01293F77A0099C793F7FA0091466383D5
:10544000D700910A93974A0063D90700B70700F87D
:10545000FD17B3FAFA0013070A089307E00FE3C435
:10546000E7FA93976A00A5831377F70F8DBFB9E426
:105470008546A9B763940A021144014A054BC5BD8C
:1054800063990A002144130AF00F094BCDB58D46EC
:1054900031B73144130AF00F0D4BD1BD56852EC6DE
:1054A000EF0010439307B5FFB39AFA009307A0F8F3
:1054B000338AA7400144014BB24555BD2685EF0014
:1054C00030411307B5FFB307AA00B394E400138A71
:1054D00067078146E1B513F91B000147814701B712
:1054E0004166139554007D1693570501698E63FA42
:1054F0009A0AB3D5FA027D1AD68601473388C502C7
:10550000B3F6F602C206558F637B07012A9793868E
:10551000F5FF6368A70A6376070BF9152A97330727
:105520000741B356F7023377F702B38AC6029317DF
:10553000070163FB5701AA971387F6FF63E1A708EA
:1055400063FF5707F916AA97C205B38A5741D58D4D
:10555000B33A5001B3EA5501CA8BF1B58546998E2D
:1055600011C76D4601478147E34BD6E6130AEA09A6
:10557000339A4A01B3D7DA00B33A4001B3E757018F
:1055800013F7770019C713F7F70091466303D700A5
:10559000910713975700634807029A07A5830147AD
:1055A0003DBD93D61A00B3D5F6021397FA01418395
:1055B0003388C502B1B7CE8B368B814AA1BDBA867E
:1055C00061B7B685A9BF0547814711BD13F91B0017
:1055D0001307F00F814721B593567501B707800077
:1055E000FD1713D6750193F6F60F1308F00FB3F8F5
:1055F000A7001357F501ED8F1376F60FFD81638435
:1056000006031305F00F6304A60205456383C60075
:105610008280E39FF8FE0145E30CB7FE0545EDFAF5
:105620003335100182800545E38D08FC82800545F5
:10563000E9DF828093567501B7078000FD1713D606
:10564000750193F6F60F1308F00FB3F8A700135780
:10565000F501ED8F1376F60FFD8163810603630C70
:1056600006018DE211E2B1C3638E08026305B7043F
:1056700005451DE78280F5D779558280E39E08FEB7
:105680006309D60211E2EDD7E314B7FEE342D6FE7A
:1056900063C7C600E3EE17FD0145E3FDF8FC01E733
:1056A0007D558280F5DD054582800145E39208FC49
:1056B0008280F9DBD1B78146E1BF93567501B70708
:1056C0008000FD1713D6750193F6F60F1308F00F3F
:1056D000B3F8A7001357F501ED8F1376F60FFD8190
:1056E000638706036309060185EA11EA89EB014530
:1056F000639B080082800945F5FFE5DA31A8638CD9
:1057000008026300B704054575D77D5582800945B9
:10571000639808026304D60211E2F5D7E315B7FED9
:10572000E343D6FE63C7C600E3EF17FD0145E3F38D
:10573000F8FC19E3D9BFF1D905458280E5D3828011
:1057400082808146C5B7797122D4135475014ECE3B
:1057500052CC9319950006D626D24AD056CA5AC8BA
:105760001374F40F93D99900135AF50169C4930780
:10577000F00F6308F40E9397390037070004B3E97C
:10578000E700130414F88144014B13D77501939A71
:1057900095001377F70F93DA9A0013D9F50145CFE7
:1057A0009307F00F630CF7028E0A130717F8B70779
:1057B0000004B3EAFA003A94014633452A01BD4792
:1057C000AA869305140063E29710172700001307B9
:1057D000E70E8A04BA949C40BA9782871304F40FA8
:1057E00063980A0C93E424000946C1BF01451307DE
:1057F000F00FB7074000B2502254A6075E07A583FA
:105800007E05D98F92540259F249624AD24A424BDC
:105810005D8D45618280CA86D689328B8947630156
:10582000FB0A8D47E304FBFC854736856312FB1AB0
:1058300001478147C9B7639E090413D77501939A3D
:1058400095001377F70F91440144054B93DA9A00C2
:1058500013D9F50131F7639D0A0093E4140005465E
:10586000A9BF63930902A1441304F00F094B31BF90
:105870005685EF00F0059307B5FF098CB39AFA003F
:105880001304A4F8014615BFB1441304F00F0D4BE7
:10589000EDBD4E852EC6EF00B0039307B5FF130490
:1058A000A0F8B399F900098C8144014BB245F1BDD0
:1058B00093E434000D4611B78947D286E313FBF613
:1058C00036851307F00F81473DB741639306F3FF19
:1058D00013D6090193D80A01B3F7D900B3FADA0055
:1058E00033885703B389F80213570801B30A5603E4
:1058F000D6994E9733061603637357011A96C167FC
:10590000FD17B376F7003378F800C206C296939974
:10591000660093570701B3393001E982B2979A07BD
:10592000B3E6D900B3E9D7009397490063D90700DC
:1059300013D7190093F71900B369F7002E841307E2
:10594000F4076350E00493F7790099C793F7F900DF
:1059500091466383D70091099397490063D9070063
:10596000B70700F8FD17B3F9F90013070408930708
:10597000E00F63CBE70493976900A5831377F70FD4
:105980009DBD8547B386E74011C76D4601478147F6
:10599000E343D6E61307E4093397E9003337E00021
:1059A000B3D7D900D98F13F7770019C713F7F700CA
:1059B00091466303D700910713975700634C070084
:1059C0009A07A583014705BD1307F00F814725B549
:1059D0002E84B5B70547814739BD3707800041118F
:1059E0007D179356750113D87501B377A70093F609
:1059F000F60F935EF5013376B70026C24AC01378DE
:105A0000F80F06C622C41303F00F3E8E3689F684C3
:105A1000139F3700FD8113153600B38806416302DA
:105A2000681093C51500638CBE106354100D63108D
:105A300008106304051EFD18B307AF406386080213
:105A40009307F00F6388F616ED4763C7172913070E
:105A50000002330717413317E500B35715013337F9
:105A6000E000D98FB307FF40139757006351071A1F
:105A7000370400047D147D8C2285992D6D15B31794
:105A8000A400634E251B330525411304150013079D
:105A90000002018F3397E7003337E000B3D7870068
:105AA000D98F014913F7770019C713F7F70091460B
:105AB0006303D700910713975700635E071493069B
:105AC00019001307F00F93FE14006386E6169A0779
:105AD000A58393F6F60FA607B240224413D597008C
